:100000000C9462000C948A000C948A000C948A0070
:100010000C948A000C948A000C948A000C948A0038
:100020000C948A000C948A000C948A000C948A0028
:100030000C948A000C948A000C948A000C948A0018
:100040000C943B020C948A000C9440040C948E0493
:100050000C948A000C948A000C948A000C948A00F8
:100060000C948A000C948A000000000024002700F1
:100070002A0000000000250028002B0000000000DE
:1000800023002600290004040404040404040202DA
:100090000202020203030303030301020408102007
:1000A0004080010204081020010204081020000012
:1000B0000007000201000003040600000000000029
:1000C0000000FA0511241FBECFEFD8E0DEBFCDBF80
:1000D00011E0A0E0B1E0E6E6FDE002C005900D927F
:1000E000A232B107D9F712E0A2E2B1E001C01D923D
:1000F000AF31B107E1F710E0C4ECD0E004C02297C3
:10010000FE010E94AD06C23CD107C9F70E9450060D
:100110000C94B1060C94000080E38093220189E2E4
:10012000809323018AE2809324018BE2809325014E
:100130008CE2809326018DE2809327018EE28093EA
:1001400028018FE28093290188E380932A0181E3CB
:1001500080932B0182E380932C0183E380932D0114
:1001600084E380932E0185E380932F0186E38093BF
:10017000300187E38093310180E48093320189E389
:10018000809333018AE3809334018BE380933501BC
:100190008CE3809336018DE3809337018EE3809367
:1001A00038018FE38093390188E480933A0181E438
:1001B00080933B0182E480933C0183E480933D0182
:1001C00084E480933E0185E480933F0186E480933C
:1001D000400187E48093410180E58093420189E4F6
:1001E000809343018AE4809344018BE4809345012A
:1001F0008CE4809346018DE4809347018EE48093E4
:1002000048018FE4809349018BE061E00E9417036D
:1002100089E061E00E9417038AE061E00E94170311
:1002200083E060E00E94170384E060E00E9417030F
:1002300085E060E00E94170386E060E00E941703FB
:1002400087E060E00E9417038DEF91E042E15AE7FA
:1002500060E070E00E94C90468EE73E080E090E026
:100260000E94830208951F93182F8AE060E00E9485
:1002700056038BE069E041E0212F0E94FD038AE0F4
:1002800061E00E9456031F910895EF92FF920F9331
:100290001F93282FF62EE42E0DEF11E0C801622FD8
:1002A0000E94BA05C8016F2D0E94BA05C8016E2DC3
:1002B0000E94BA051F910F91FF90EF9008955F92F1
:1002C0006F927F928F929F92AF92BF92CF92DF9266
:1002D000EF92FF920F931F93CF93DF9382E0882ECC
:1002E00081E0982EC7E4D1E002E211E05524539456
:1002F000F401808191810E94330183E00E94AA036E
:100300003C0184E00E94AA037C0185E00E94AA03CC
:100310006C0186E00E94AA035C0187E00E94AA03A8
:100320006114710451F4E114F104C9F4C114D1044D
:1003300041F5A114B104A1F547C08881882361F477
:100340005882F8016081409100015091010180E9DB
:1003500090E070E00E944501E114F10479F0888595
:10036000882361F45886F80160854091000150911E
:10037000010180E990E070E00E944501C114D104C0
:1003800079F08889882361F4588AF801608940915E
:1003900000015091010180E990E070E00E94450168
:1003A000A114B10479F0888D882361F4588EF80186
:1003B000608D409100015091010180E990E070E072
:1003C0000E944501672869F48881882351F01882CA
:1003D000F801608180E990E070E040E050E00E9428
:1003E0004501EF2869F48885882351F01886F801C3
:1003F000608580E990E070E040E050E00E944501B7
:10040000CD2869F48889882351F0188AF801608919
:1004100080E990E070E040E050E00E944501AB28A8
:1004200069F4888D882351F0188EF801608D80E979
:1004300090E070E040E050E00E94450182E090E0F2
:10044000880E991E21960F5F1F4F92E1891691E049
:10045000990609F04DCFDF91CF911F910F91FF9039
:10046000EF90DF90CF90BF90AF909F908F907F9054
:100470006F905F9008951F920F920FB60F92112404
:100480002F933F938F939F93AF93BF93809170016E
:1004900090917101A0917201B0917301309174013A
:1004A0000196A11DB11D232F2D5F2D3720F02D5753
:1004B0000196A11DB11D209374018093700190934A
:1004C0007101A0937201B093730180916C019091BE
:1004D0006D01A0916E01B0916F010196A11DB11D3A
:1004E00080936C0190936D01A0936E01B0936F01A6
:1004F000BF91AF919F918F913F912F910F900FBE20
:100500000F901F9018959B01AC017FB7F8948091D4
:100510006C0190916D01A0916E01B0916F0166B573
:10052000A89B05C06F3F19F00196A11DB11D7FBFAB
:10053000BA2FA92F982F8827860F911DA11DB11DB5
:1005400062E0880F991FAA1FBB1F6A95D1F7BC01F3
:100550002DC0FFB7F89480916C0190916D01A0912E
:100560006E01B0916F01E6B5A89B05C0EF3F19F091
:100570000196A11DB11DFFBFBA2FA92F982F882763
:100580008E0F911DA11DB11DE2E0880F991FAA1FBA
:10059000BB1FEA95D1F7861B970B885E9340C8F284
:1005A000215030404040504068517C4F211531056A
:1005B0004105510571F60895789484B5826084BD33
:1005C00084B5816084BD85B5826085BD85B5816057
:1005D00085BDEEE6F0E0808181608083E1E8F0E0B7
:1005E0001082808182608083808181608083E0E8E6
:1005F000F0E0808181608083E1EBF0E080818460C5
:100600008083E0EBF0E0808181608083EAE7F0E0C6
:10061000808184608083808182608083808181602A
:1006200080838081806880831092C1000895CF9379
:10063000DF93482F50E0CA0186569F4FFC0134914A
:100640004A575F4FFA018491882369F190E0880F3F
:10065000991FFC01E859FF4FA591B491FC01EE5898
:10066000FF4FC591D491662351F42FB7F8948C9124
:10067000932F909589238C93888189230BC06230B6
:1006800061F42FB7F8948C91932F909589238C93D4
:100690008881832B88832FBF06C09FB7F8948C91E5
:1006A000832B8C939FBFDF91CF910895482F50E00B
:1006B000CA0182559F4FFC012491CA0186569F4F63
:1006C000FC0194914A575F4FFA013491332309F4A6
:1006D00040C0222351F1233071F0243028F421301E
:1006E000A1F0223011F514C02630B1F02730C1F04E
:1006F0002430D9F404C0809180008F7703C08091AA
:1007000080008F7D8093800010C084B58F7702C0F9
:1007100084B58F7D84BD09C08091B0008F7703C000
:100720008091B0008F7D8093B000E32FF0E0EE0F5A
:10073000FF1FEE58FF4FA591B4912FB7F894662391
:1007400021F48C919095892302C08C91892B8C93F4
:100750002FBF0895682F70E0CB0182559F4FFC0199
:100760002491CB0186569F4FFC0144916A577F4FDD
:10077000FB019491992319F420E030E03CC022233E
:1007800051F1233071F0243028F42130A1F02230CF
:1007900011F514C02630B1F02730C1F02430D9F45F
:1007A00004C0809180008F7703C0809180008F7D8E
:1007B0008093800010C084B58F7702C084B58F7D90
:1007C00084BD09C08091B0008F7703C08091B000D4
:1007D0008F7D8093B000892F90E0880F991F8458F7
:1007E0009F4FFC01A591B4918C9120E030E08423CF
:1007F00011F021E030E0C9010895BF92CF92DF925D
:10080000EF92FF920F931F93CF93DF93E82EF62E74
:10081000B42EC7E0D0E0022F10E087E0C82ED12C24
:10082000BB2059F4B6016C1B7D0BC80102C0959525
:1008300087956A95E2F7BC0107C0B8010C2E02C08B
:10084000759567950A94E2F761708E2D0E945603A4
:100850008F2D61E00E9456038F2D60E00E945603A9
:1008600021979FEFCF3FD907D9F6DF91CF911F9105
:100870000F91FF90EF90DF90CF90BF900895089573
:100880001F920F920FB60F9211242F933F934F9305
:100890008F939F93EF93FF938091C00082FD1DC0C3
:1008A0004091C6002091B5013091B6012F5F3F4FB6
:1008B0002F7330708091B7019091B80128173907D4
:1008C00071F0E091B501F091B601EB58FE4F408315
:1008D0003093B6012093B50102C08091C600FF910C
:1008E000EF919F918F914F913F912F910F900FBE5C
:1008F0000F901F901895E0910902F0910A02E05CB8
:10090000FF4F8191919120813181821B930B8F73D5
:100910009070892B11F00E943F0408951F920F924E
:100920000FB60F9211242F933F938F939F93EF93C2
:10093000FF932091F9013091FA018091FB01909190
:10094000FC012817390731F48091C1008F7D809315
:10095000C10014C0E091FB01F091FC01E754FE4F8F
:1009600020818091FB019091FC0101968F73907022
:100970009093FC018093FB012093C600FF91EF91BF
:100980009F918F913F912F910F900FBE0F901F90CD
:100990001895AF92BF92DF92EF92FF920F931F9341
:1009A000CF93DF93EC017A018B01DD24403081EE9F
:1009B000580780E0680780E0780711F0DD24D394C1
:1009C00091E0A92EB12CEC89FD89DD2069F0C501EB
:1009D00008A002C0880F991F0A94E2F7808360E0A4
:1009E00079E08DE390E005C0108260E874E88EE164
:1009F00090E0A80197010E948906215030404040B4
:100A00005040569547953795279580E12030380717
:100A100020F0DD2011F0DD24D6CFE889F98930837C
:100A2000EA89FB89208319A2EE89FF89408121E0B0
:100A300030E0C9010C8C02C0880F991F0A94E2F7BC
:100A4000482B4083EE89FF894081C9010D8C02C08B
:100A5000880F991F0A94E2F7482B4083EE89FF899B
:100A60004081C9010E8C02C0880F991F0A94E2F7D9
:100A7000482B4083EE89FF8980810F8C02C0220FB2
:100A8000331F0A94E2F7209528232083DF91CF912A
:100A90001F910F91FF90EF90DF90BF90AF9008955E
:100AA000DC011C96ED91FC911D97E05CFF4F2191BC
:100AB000319180819181281B390B2F733070C901CE
:100AC0000895DC011C96ED91FC911D97E05CFF4FB1
:100AD00020813181E054F040DF01AE5BBF4F8D914A
:100AE0009C9111972817390719F42FEF3FEF07C092
:100AF0008D919C91E80FF91F8081282F30E0C9016A
:100B00000895DC011C96ED91FC911D97E05CFF4F70
:100B100020813181E054F040DF01AE5BBF4F8D9109
:100B20009C9111972817390719F42FEF3FEF10C048
:100B30008D919C911197E80FF91F20818D919C91C7
:100B4000119701968F73907011969C938E9330E05D
:100B5000C9010895DC0191968C919197882339F011
:100B60005496ED91FC915597808186FFF9CF91962F
:100B70001C920895CF93DF93EC01EE85FF85E05C36
:100B8000FF4F20813181E054F0402F5F3F4F2F73A2
:100B90003070DF01AE5BBF4F8D919C91119728178C
:100BA0003907D1F3E05CFF4F80819181E054F04040
:100BB000E80FF91F6083EE85FF85E05CFF4F31830E
:100BC0002083EE89FF89208181E090E00F8C02C0B4
:100BD000880F991F0A94E2F7282B208381E089A3CC
:100BE000EC89FD8980818064808381E090E0DF91E1
:100BF000CF910895109200021092FF0188EE93E0C9
:100C0000A0E0B0E08093010290930202A09303025F
:100C1000B093040286E191E09093FE018093FD0180
:100C200085E791E090930A028093090289EB91E0B5
:100C300090930C0280930B0285EC90E090930E024F
:100C400080930D0284EC90E09093100280930F0249
:100C500080EC90E0909312028093110281EC90E07E
:100C6000909314028093130282EC90E0909316020A
:100C70008093150286EC90E09093180280931702FF
:100C800084E08093190283E080931A0287E08093C6
:100C90001B0285E080931C0281E080931D02089571
:100CA000CF93DF930E94DC020E948C00CBE7D4E05C
:100CB0000E945F012097E1F30E947B04F9CFCF925D
:100CC000DF92EF92FF920F931F93CF93DF937C01FC
:100CD0006B018A01C0E0D0E00FC0D6016D916D01BB
:100CE000D701ED91FC910190F081E02DC7010995AC
:100CF000C80FD91F015010400115110571F7CE0121
:100D0000DF91CF911F910F91FF90EF90DF90CF90E7
:100D10000895A1E21A2EAA1BBB1BFD010DC0AA1F3C
:100D2000BB1FEE1FFF1FA217B307E407F50720F054
:100D3000A21BB30BE40BF50B661F771F881F991FCF
:100D40001A9469F760957095809590959B01AC0118
:100D5000BD01CF010895EE0FFF1F0590F491E02D26
:060D60000994F894FFCF96
:100D66007F0001000200040008001000200040007F
:100D7600800000000000BA055F0650058105610588
:020D8600AA05BC
:00000001FF
